{
  "_format": "hh-sol-artifact-1",
  "contractName": "EthRewardPool",
  "sourceName": "contracts/EthRewardPool.sol",
  "abi": [
    {
      "inputs": [],
      "stateMutability": "nonpayable",
      "type": "constructor"
    },
    {
      "inputs": [],
      "name": "AccessControlBadConfirmation",
      "type": "error"
    },
    {
      "inputs": [
        {
          "internalType": "address",
          "name": "account",
          "type": "address"
        },
        {
          "internalType": "bytes32",
          "name": "neededRole",
          "type": "bytes32"
        }
      ],
      "name": "AccessControlUnauthorizedAccount",
      "type": "error"
    },
    {
      "inputs": [
        {
          "internalType": "address",
          "name": "target",
          "type": "address"
        }
      ],
      "name": "AddressEmptyCode",
      "type": "error"
    },
    {
      "inputs": [
        {
          "internalType": "address",
          "name": "implementation",
          "type": "address"
        }
      ],
      "name": "ERC1967InvalidImplementation",
      "type": "error"
    },
    {
      "inputs": [],
      "name": "ERC1967NonPayable",
      "type": "error"
    },
    {
      "inputs": [],
      "name": "FailedCall",
      "type": "error"
    },
    {
      "inputs": [],
      "name": "InvalidInitialization",
      "type": "error"
    },
    {
      "inputs": [],
      "name": "NotInitializing",
      "type": "error"
    },
    {
      "inputs": [],
      "name": "ReentrancyGuardReentrantCall",
      "type": "error"
    },
    {
      "inputs": [],
      "name": "UUPSUnauthorizedCallContext",
      "type": "error"
    },
    {
      "inputs": [
        {
          "internalType": "bytes32",
          "name": "slot",
          "type": "bytes32"
        }
      ],
      "name": "UUPSUnsupportedProxiableUUID",
      "type": "error"
    },
    {
      "anonymous": false,
      "inputs": [
        {
          "indexed": false,
          "internalType": "uint64",
          "name": "version",
          "type": "uint64"
        }
      ],
      "name": "Initialized",
      "type": "event"
    },
    {
      "anonymous": false,
      "inputs": [
        {
          "indexed": true,
          "internalType": "address",
          "name": "participant",
          "type": "address"
        },
        {
          "indexed": false,
          "internalType": "uint256",
          "name": "amount",
          "type": "uint256"
        }
      ],
      "name": "ParticipantJoined",
      "type": "event"
    },
    {
      "anonymous": false,
      "inputs": [
        {
          "indexed": true,
          "internalType": "address",
          "name": "recipient",
          "type": "address"
        },
        {
          "indexed": false,
          "internalType": "uint256",
          "name": "amount",
          "type": "uint256"
        },
        {
          "indexed": false,
          "internalType": "uint256",
          "name": "roundId",
          "type": "uint256"
        }
      ],
      "name": "RewardDistributed",
      "type": "event"
    },
    {
      "anonymous": false,
      "inputs": [
        {
          "indexed": true,
          "internalType": "bytes32",
          "name": "role",
          "type": "bytes32"
        },
        {
          "indexed": true,
          "internalType": "bytes32",
          "name": "previousAdminRole",
          "type": "bytes32"
        },
        {
          "indexed": true,
          "internalType": "bytes32",
          "name": "newAdminRole",
          "type": "bytes32"
        }
      ],
      "name": "RoleAdminChanged",
      "type": "event"
    },
    {
      "anonymous": false,
      "inputs": [
        {
          "indexed": true,
          "internalType": "bytes32",
          "name": "role",
          "type": "bytes32"
        },
        {
          "indexed": true,
          "internalType": "address",
          "name": "account",
          "type": "address"
        },
        {
          "indexed": true,
          "internalType": "address",
          "name": "sender",
          "type": "address"
        }
      ],
      "name": "RoleGranted",
      "type": "event"
    },
    {
      "anonymous": false,
      "inputs": [
        {
          "indexed": true,
          "internalType": "bytes32",
          "name": "role",
          "type": "bytes32"
        },
        {
          "indexed": true,
          "internalType": "address",
          "name": "account",
          "type": "address"
        },
        {
          "indexed": true,
          "internalType": "address",
          "name": "sender",
          "type": "address"
        }
      ],
      "name": "RoleRevoked",
      "type": "event"
    },
    {
      "anonymous": false,
      "inputs": [
        {
          "indexed": true,
          "internalType": "address",
          "name": "implementation",
          "type": "address"
        }
      ],
      "name": "Upgraded",
      "type": "event"
    },
    {
      "inputs": [],
      "name": "AUTOMATION_ROLE",
      "outputs": [
        {
          "internalType": "bytes32",
          "name": "",
          "type": "bytes32"
        }
      ],
      "stateMutability": "view",
      "type": "function"
    },
    {
      "inputs": [],
      "name": "DEFAULT_ADMIN_ROLE",
      "outputs": [
        {
          "internalType": "bytes32",
          "name": "",
          "type": "bytes32"
        }
      ],
      "stateMutability": "view",
      "type": "function"
    },
    {
      "inputs": [],
      "name": "MIN_CONTRIBUTION",
      "outputs": [
        {
          "internalType": "uint256",
          "name": "",
          "type": "uint256"
        }
      ],
      "stateMutability": "view",
      "type": "function"
    },
    {
      "inputs": [],
      "name": "ROUND_DURATION",
      "outputs": [
        {
          "internalType": "uint256",
          "name": "",
          "type": "uint256"
        }
      ],
      "stateMutability": "view",
      "type": "function"
    },
    {
      "inputs": [],
      "name": "UPGRADER_ROLE",
      "outputs": [
        {
          "internalType": "bytes32",
          "name": "",
          "type": "bytes32"
        }
      ],
      "stateMutability": "view",
      "type": "function"
    },
    {
      "inputs": [],
      "name": "UPGRADE_INTERFACE_VERSION",
      "outputs": [
        {
          "internalType": "string",
          "name": "",
          "type": "string"
        }
      ],
      "stateMutability": "view",
      "type": "function"
    },
    {
      "inputs": [],
      "name": "distributeReward",
      "outputs": [],
      "stateMutability": "nonpayable",
      "type": "function"
    },
    {
      "inputs": [],
      "name": "getParticipants",
      "outputs": [
        {
          "internalType": "address payable[]",
          "name": "",
          "type": "address[]"
        }
      ],
      "stateMutability": "view",
      "type": "function"
    },
    {
      "inputs": [
        {
          "internalType": "bytes32",
          "name": "role",
          "type": "bytes32"
        }
      ],
      "name": "getRoleAdmin",
      "outputs": [
        {
          "internalType": "bytes32",
          "name": "",
          "type": "bytes32"
        }
      ],
      "stateMutability": "view",
      "type": "function"
    },
    {
      "inputs": [
        {
          "internalType": "bytes32",
          "name": "role",
          "type": "bytes32"
        },
        {
          "internalType": "address",
          "name": "account",
          "type": "address"
        }
      ],
      "name": "grantRole",
      "outputs": [],
      "stateMutability": "nonpayable",
      "type": "function"
    },
    {
      "inputs": [
        {
          "internalType": "address",
          "name": "",
          "type": "address"
        }
      ],
      "name": "hasJoined",
      "outputs": [
        {
          "internalType": "bool",
          "name": "",
          "type": "bool"
        }
      ],
      "stateMutability": "view",
      "type": "function"
    },
    {
      "inputs": [
        {
          "internalType": "bytes32",
          "name": "role",
          "type": "bytes32"
        },
        {
          "internalType": "address",
          "name": "account",
          "type": "address"
        }
      ],
      "name": "hasRole",
      "outputs": [
        {
          "internalType": "bool",
          "name": "",
          "type": "bool"
        }
      ],
      "stateMutability": "view",
      "type": "function"
    },
    {
      "inputs": [],
      "name": "initialize",
      "outputs": [],
      "stateMutability": "nonpayable",
      "type": "function"
    },
    {
      "inputs": [],
      "name": "joinPool",
      "outputs": [],
      "stateMutability": "payable",
      "type": "function"
    },
    {
      "inputs": [
        {
          "internalType": "uint256",
          "name": "",
          "type": "uint256"
        }
      ],
      "name": "participants",
      "outputs": [
        {
          "internalType": "address payable",
          "name": "",
          "type": "address"
        }
      ],
      "stateMutability": "view",
      "type": "function"
    },
    {
      "inputs": [],
      "name": "proxiableUUID",
      "outputs": [
        {
          "internalType": "bytes32",
          "name": "",
          "type": "bytes32"
        }
      ],
      "stateMutability": "view",
      "type": "function"
    },
    {
      "inputs": [
        {
          "internalType": "bytes32",
          "name": "role",
          "type": "bytes32"
        },
        {
          "internalType": "address",
          "name": "callerConfirmation",
          "type": "address"
        }
      ],
      "name": "renounceRole",
      "outputs": [],
      "stateMutability": "nonpayable",
      "type": "function"
    },
    {
      "inputs": [
        {
          "internalType": "bytes32",
          "name": "role",
          "type": "bytes32"
        },
        {
          "internalType": "address",
          "name": "account",
          "type": "address"
        }
      ],
      "name": "revokeRole",
      "outputs": [],
      "stateMutability": "nonpayable",
      "type": "function"
    },
    {
      "inputs": [
        {
          "internalType": "uint256",
          "name": "",
          "type": "uint256"
        }
      ],
      "name": "rewardHistory",
      "outputs": [
        {
          "internalType": "address payable",
          "name": "",
          "type": "address"
        }
      ],
      "stateMutability": "view",
      "type": "function"
    },
    {
      "inputs": [],
      "name": "roundId",
      "outputs": [
        {
          "internalType": "uint256",
          "name": "",
          "type": "uint256"
        }
      ],
      "stateMutability": "view",
      "type": "function"
    },
    {
      "inputs": [],
      "name": "roundStart",
      "outputs": [
        {
          "internalType": "uint256",
          "name": "",
          "type": "uint256"
        }
      ],
      "stateMutability": "view",
      "type": "function"
    },
    {
      "inputs": [
        {
          "internalType": "bytes4",
          "name": "interfaceId",
          "type": "bytes4"
        }
      ],
      "name": "supportsInterface",
      "outputs": [
        {
          "internalType": "bool",
          "name": "",
          "type": "bool"
        }
      ],
      "stateMutability": "view",
      "type": "function"
    },
    {
      "inputs": [
        {
          "internalType": "address",
          "name": "newImplementation",
          "type": "address"
        },
        {
          "internalType": "bytes",
          "name": "data",
          "type": "bytes"
        }
      ],
      "name": "upgradeToAndCall",
      "outputs": [],
      "stateMutability": "payable",
      "type": "function"
    }
  ],
  "bytecode": "0x60a06040523073ffffffffffffffffffffffffffffffffffffffff1660809073ffffffffffffffffffffffffffffffffffffffff168152503480156200004457600080fd5b50620000556200005b60201b60201c565b620001ee565b60006200006d6200016560201b60201c565b90508060000160089054906101000a900460ff1615620000b9576040517ff92ee8a900000000000000000000000000000000000000000000000000000000815260040160405180910390fd5b67ffffffffffffffff80168160000160009054906101000a900467ffffffffffffffff1667ffffffffffffffff1614620001625767ffffffffffffffff8160000160006101000a81548167ffffffffffffffff021916908367ffffffffffffffff1602179055507fc7f505b2f371ae2175ee4913f4499e1f2633a7b5936321eed1cdaeb6115181d267ffffffffffffffff604051620001599190620001d1565b60405180910390a15b50565b600080620001786200018160201b60201c565b90508091505090565b60007ff0c57e16840df040f15088dc2f81fe391c3923bec73e23a9662efc9c229c6a0060001b905090565b600067ffffffffffffffff82169050919050565b620001cb81620001ac565b82525050565b6000602082019050620001e86000830184620001c0565b92915050565b6080516127e362000218600039600081816113c60152818161141b01526115f901526127e36000f3fe6080604052600436106101405760003560e01c80635aa68ac0116100b65780638f73c5ae1161006f5780638f73c5ae1461043257806391d1485414610449578063a217fddf14610486578063ad3cb1cc146104b1578063d547741f146104dc578063f72c0d8b1461050557610140565b80635aa68ac0146103535780636641ea081461037e5780638129fc1c146103a95780638371e6b4146103c0578063877f4e12146103ca5780638cd221c91461040757610140565b806335c1d3491161010857806335c1d3491461025057806336568abe1461028d57806340365852146102b657806340650c91146102e15780634f1ef2861461030c57806352d1902d1461032857610140565b806301ffc9a7146101455780630da817db14610182578063248a9ca3146101bf57806324c20eec146101fc5780632f2ff15d14610227575b600080fd5b34801561015157600080fd5b5061016c60048036038101906101679190611c2c565b610530565b6040516101799190611c74565b60405180910390f35b34801561018e57600080fd5b506101a960048036038101906101a49190611cc5565b6105aa565b6040516101b69190611d33565b60405180910390f35b3480156101cb57600080fd5b506101e660048036038101906101e19190611d84565b6105dd565b6040516101f39190611dc0565b60405180910390f35b34801561020857600080fd5b5061021161060b565b60405161021e9190611dc0565b60405180910390f35b34801561023357600080fd5b5061024e60048036038101906102499190611e19565b61062f565b005b34801561025c57600080fd5b5061027760048036038101906102729190611cc5565b610651565b6040516102849190611d33565b60405180910390f35b34801561029957600080fd5b506102b460048036038101906102af9190611e19565b610690565b005b3480156102c257600080fd5b506102cb61070b565b6040516102d89190611e68565b60405180910390f35b3480156102ed57600080fd5b506102f6610711565b6040516103039190611e68565b60405180910390f35b61032660048036038101906103219190611fc9565b61071c565b005b34801561033457600080fd5b5061033d61073b565b60405161034a9190611dc0565b60405180910390f35b34801561035f57600080fd5b5061036861076e565b60405161037591906120e3565b60405180910390f35b34801561038a57600080fd5b506103936107fc565b6040516103a09190611e68565b60405180910390f35b3480156103b557600080fd5b506103be610802565b005b6103c8610a12565b005b3480156103d657600080fd5b506103f160048036038101906103ec9190612105565b610c55565b6040516103fe9190611c74565b60405180910390f35b34801561041357600080fd5b5061041c610c75565b6040516104299190611e68565b60405180910390f35b34801561043e57600080fd5b50610447610c7b565b005b34801561045557600080fd5b50610470600480360381019061046b9190611e19565b611014565b60405161047d9190611c74565b60405180910390f35b34801561049257600080fd5b5061049b61108d565b6040516104a89190611dc0565b60405180910390f35b3480156104bd57600080fd5b506104c6611094565b6040516104d391906121b1565b60405180910390f35b3480156104e857600080fd5b5061050360048036038101906104fe9190611e19565b6110cd565b005b34801561051157600080fd5b5061051a6110ef565b6040516105279190611dc0565b60405180910390f35b60007f7965db0b000000000000000000000000000000000000000000000000000000007bffffffffffffffffffffffffffffffffffffffffffffffffffffffff1916827bffffffffffffffffffffffffffffffffffffffffffffffffffffffff191614806105a357506105a282611113565b5b9050919050565b60046020528060005260406000206000915054906101000a900473ffffffffffffffffffffffffffffffffffffffff1681565b6000806105e861117d565b905080600001600084815260200190815260200160002060010154915050919050565b7f85d36e3b488c35c2a15344b305cb84e2000f26d4f3a7c1e8a516f0e82aee752a81565b610638826105dd565b610641816111a5565b61064b83836111b9565b50505050565b6002818154811061066157600080fd5b906000526020600020016000915054906101000a900473ffffffffffffffffffffffffffffffffffffffff1681565b6106986112ba565b73ffffffffffffffffffffffffffffffffffffffff168173ffffffffffffffffffffffffffffffffffffffff16146106fc576040517f6697b23200000000000000000000000000000000000000000000000000000000815260040160405180910390fd5b61070682826112c2565b505050565b60015481565b662386f26fc1000081565b6107246113c4565b61072d826114aa565b61073782826114d8565b5050565b60006107456115f7565b7f360894a13ba1a3210667c828492db98dca3e2076cc3735a920a3ca505d382bbc60001b905090565b606060028054806020026020016040519081016040528092919081815260200182805480156107f257602002820191906000526020600020905b8160009054906101000a900473ffffffffffffffffffffffffffffffffffffffff1673ffffffffffffffffffffffffffffffffffffffff16815260200190600101908083116107a8575b5050505050905090565b61025881565b600061080c61167e565b905060008160000160089054906101000a900460ff1615905060008260000160009054906101000a900467ffffffffffffffff1690506000808267ffffffffffffffff1614801561085a5750825b9050600060018367ffffffffffffffff1614801561088f575060003073ffffffffffffffffffffffffffffffffffffffff163b145b90508115801561089d575080155b156108d4576040517ff92ee8a900000000000000000000000000000000000000000000000000000000815260040160405180910390fd5b60018560000160006101000a81548167ffffffffffffffff021916908367ffffffffffffffff16021790555083156109245760018560000160086101000a81548160ff0219169083151502179055505b61092c611692565b61093461169c565b61093c6116a6565b6109496000801b336111b9565b506109747f189ab7a9244df0848122154315af71fe140f3db0fe014031783b0946b8c9d2e3336111b9565b5061099f7f85d36e3b488c35c2a15344b305cb84e2000f26d4f3a7c1e8a516f0e82aee752a336111b9565b506001600081905550426001819055508315610a0b5760008560000160086101000a81548160ff0219169083151502179055507fc7f505b2f371ae2175ee4913f4499e1f2633a7b5936321eed1cdaeb6115181d26001604051610a02919061222c565b60405180910390a15b5050505050565b610a1a6116b8565b610258600154610a2a9190612276565b4210610a6b576040517f08c379a0000000000000000000000000000000000000000000000000000000008152600401610a62906122f6565b60405180910390fd5b600360003373ffffffffffffffffffffffffffffffffffffffff1673ffffffffffffffffffffffffffffffffffffffff16815260200190815260200160002060009054906101000a900460ff1615610af8576040517f08c379a0000000000000000000000000000000000000000000000000000000008152600401610aef90612362565b60405180910390fd5b662386f26fc10000341015610b42576040517f08c379a0000000000000000000000000000000000000000000000000000000008152600401610b39906123ce565b60405180910390fd5b6002339080600181540180825580915050600190039060005260206000200160009091909190916101000a81548173ffffffffffffffffffffffffffffffffffffffff021916908373ffffffffffffffffffffffffffffffffffffffff1602179055506001600360003373ffffffffffffffffffffffffffffffffffffffff1673ffffffffffffffffffffffffffffffffffffffff16815260200190815260200160002060006101000a81548160ff0219169083151502179055503373ffffffffffffffffffffffffffffffffffffffff167f8123641a38ad3476ac345fc38496fa9edc26a110698c8c0c9fffc30f546f918c34604051610c439190611e68565b60405180910390a2610c5361170f565b565b60036020528060005260406000206000915054906101000a900460ff1681565b60005481565b610c836116b8565b7f85d36e3b488c35c2a15344b305cb84e2000f26d4f3a7c1e8a516f0e82aee752a610cad816111a5565b610258600154610cbd9190612276565b421015610cff576040517f08c379a0000000000000000000000000000000000000000000000000000000008152600401610cf69061243a565b60405180910390fd5b600060028054905011610d47576040517f08c379a0000000000000000000000000000000000000000000000000000000008152600401610d3e906124a6565b60405180910390fd5b600060028054905044600280549050604051602001610d679291906124e7565b6040516020818303038152906040528051906020012060001c610d8a9190612542565b9050600060028281548110610da257610da1612573565b5b9060005260206000200160009054906101000a900473ffffffffffffffffffffffffffffffffffffffff169050600047905060008273ffffffffffffffffffffffffffffffffffffffff1682604051610dfa906125d3565b60006040518083038185875af1925050503d8060008114610e37576040519150601f19603f3d011682016040523d82523d6000602084013e610e3c565b606091505b5050905080610e80576040517f08c379a0000000000000000000000000000000000000000000000000000000008152600401610e7790612634565b60405180910390fd5b82600460008054815260200190815260200160002060006101000a81548173ffffffffffffffffffffffffffffffffffffffff021916908373ffffffffffffffffffffffffffffffffffffffff1602179055508273ffffffffffffffffffffffffffffffffffffffff167f53118bff2fb56701752f5bf54053d24fb83cec92f9f6ce664b90c38a2991caa483600054604051610f1d929190612654565b60405180910390a260005b600280549050811015610fd85760006003600060028481548110610f4f57610f4e612573565b5b9060005260206000200160009054906101000a900473ffffffffffffffffffffffffffffffffffffffff1673ffffffffffffffffffffffffffffffffffffffff1673ffffffffffffffffffffffffffffffffffffffff16815260200190815260200160002060006101000a81548160ff0219169083151502179055508080600101915050610f28565b5060026000610fe79190611b82565b426001819055506000808154809291906110009061267d565b9190505550505050505061101261170f565b565b60008061101f61117d565b905080600001600085815260200190815260200160002060000160008473ffffffffffffffffffffffffffffffffffffffff1673ffffffffffffffffffffffffffffffffffffffff16815260200190815260200160002060009054906101000a900460ff1691505092915050565b6000801b81565b6040518060400160405280600581526020017f352e302e3000000000000000000000000000000000000000000000000000000081525081565b6110d6826105dd565b6110df816111a5565b6110e983836112c2565b50505050565b7f189ab7a9244df0848122154315af71fe140f3db0fe014031783b0946b8c9d2e381565b60007f01ffc9a7000000000000000000000000000000000000000000000000000000007bffffffffffffffffffffffffffffffffffffffffffffffffffffffff1916827bffffffffffffffffffffffffffffffffffffffffffffffffffffffff1916149050919050565b60007f02dd7bc7dec4dceedda775e58dd541e08a116c6c53815c0bd028192f7b626800905090565b6111b6816111b16112ba565b611728565b50565b6000806111c461117d565b90506111d08484611014565b6112ae57600181600001600086815260200190815260200160002060000160008573ffffffffffffffffffffffffffffffffffffffff1673ffffffffffffffffffffffffffffffffffffffff16815260200190815260200160002060006101000a81548160ff02191690831515021790555061124a6112ba565b73ffffffffffffffffffffffffffffffffffffffff168373ffffffffffffffffffffffffffffffffffffffff16857f2f8788117e7eff1d82e926ec794901d17c78024a50270940304540a733656f0d60405160405180910390a460019150506112b4565b60009150505b92915050565b600033905090565b6000806112cd61117d565b90506112d98484611014565b156113b857600081600001600086815260200190815260200160002060000160008573ffffffffffffffffffffffffffffffffffffffff1673ffffffffffffffffffffffffffffffffffffffff16815260200190815260200160002060006101000a81548160ff0219169083151502179055506113546112ba565b73ffffffffffffffffffffffffffffffffffffffff168373ffffffffffffffffffffffffffffffffffffffff16857ff6391f5c32d9c69d2a47ea670b442974b53935d1edc7fd64eb21e047a839171b60405160405180910390a460019150506113be565b60009150505b92915050565b7f000000000000000000000000000000000000000000000000000000000000000073ffffffffffffffffffffffffffffffffffffffff163073ffffffffffffffffffffffffffffffffffffffff16148061147157507f000000000000000000000000000000000000000000000000000000000000000073ffffffffffffffffffffffffffffffffffffffff16611458611779565b73ffffffffffffffffffffffffffffffffffffffff1614155b156114a8576040517fe07c8dba00000000000000000000000000000000000000000000000000000000815260040160405180910390fd5b565b7f189ab7a9244df0848122154315af71fe140f3db0fe014031783b0946b8c9d2e36114d4816111a5565b5050565b8173ffffffffffffffffffffffffffffffffffffffff166352d1902d6040518163ffffffff1660e01b8152600401602060405180830381865afa92505050801561154057506040513d601f19601f8201168201806040525081019061153d91906126da565b60015b61158157816040517f4c9c8ce30000000000000000000000000000000000000000000000000000000081526004016115789190612716565b60405180910390fd5b7f360894a13ba1a3210667c828492db98dca3e2076cc3735a920a3ca505d382bbc60001b81146115e857806040517faa1d49a40000000000000000000000000000000000000000000000000000000081526004016115df9190611dc0565b60405180910390fd5b6115f283836117d0565b505050565b7f000000000000000000000000000000000000000000000000000000000000000073ffffffffffffffffffffffffffffffffffffffff163073ffffffffffffffffffffffffffffffffffffffff161461167c576040517fe07c8dba00000000000000000000000000000000000000000000000000000000815260040160405180910390fd5b565b600080611689611843565b90508091505090565b61169a61186e565b565b6116a461186e565b565b6116ae61186e565b6116b66118ae565b565b60006116c26118cf565b90506002816000015403611702576040517f3ee5aeb500000000000000000000000000000000000000000000000000000000815260040160405180910390fd5b6002816000018190555050565b60006117196118cf565b90506001816000018190555050565b6117328282611014565b6117755780826040517fe2517d3f00000000000000000000000000000000000000000000000000000000815260040161176c929190612731565b60405180910390fd5b5050565b60006117a77f360894a13ba1a3210667c828492db98dca3e2076cc3735a920a3ca505d382bbc60001b6118f7565b60000160009054906101000a900473ffffffffffffffffffffffffffffffffffffffff16905090565b6117d982611901565b8173ffffffffffffffffffffffffffffffffffffffff167fbc7cd75a20ee27fd9adebab32041f755214dbc6bffa90cc0225b39da2e5c2d3b60405160405180910390a26000815111156118365761183082826119ce565b5061183f565b61183e611a52565b5b5050565b60007ff0c57e16840df040f15088dc2f81fe391c3923bec73e23a9662efc9c229c6a0060001b905090565b611876611a8f565b6118ac576040517fd7e6bcf800000000000000000000000000000000000000000000000000000000815260040160405180910390fd5b565b6118b661186e565b60006118c06118cf565b90506001816000018190555050565b60007f9b779b17422d0df92223018b32b4d1fa46e071723d6817e2486d003becc55f00905090565b6000819050919050565b60008173ffffffffffffffffffffffffffffffffffffffff163b0361195d57806040517f4c9c8ce30000000000000000000000000000000000000000000000000000000081526004016119549190612716565b60405180910390fd5b8061198a7f360894a13ba1a3210667c828492db98dca3e2076cc3735a920a3ca505d382bbc60001b6118f7565b60000160006101000a81548173ffffffffffffffffffffffffffffffffffffffff021916908373ffffffffffffffffffffffffffffffffffffffff16021790555050565b60606000808473ffffffffffffffffffffffffffffffffffffffff16846040516119f89190612796565b600060405180830381855af49150503d8060008114611a33576040519150601f19603f3d011682016040523d82523d6000602084013e611a38565b606091505b5091509150611a48858383611aaf565b9250505092915050565b6000341115611a8d576040517fb398979f00000000000000000000000000000000000000000000000000000000815260040160405180910390fd5b565b6000611a9961167e565b60000160089054906101000a900460ff16905090565b606082611ac457611abf82611b3e565b611b36565b60008251148015611aec575060008473ffffffffffffffffffffffffffffffffffffffff163b145b15611b2e57836040517f9996b315000000000000000000000000000000000000000000000000000000008152600401611b259190612716565b60405180910390fd5b819050611b37565b5b9392505050565b600081511115611b5057805160208201fd5b6040517fd6bda27500000000000000000000000000000000000000000000000000000000815260040160405180910390fd5b5080546000825590600052602060002090810190611ba09190611ba3565b50565b5b80821115611bbc576000816000905550600101611ba4565b5090565b6000604051905090565b600080fd5b600080fd5b60007fffffffff0000000000000000000000000000000000000000000000000000000082169050919050565b611c0981611bd4565b8114611c1457600080fd5b50565b600081359050611c2681611c00565b92915050565b600060208284031215611c4257611c41611bca565b5b6000611c5084828501611c17565b91505092915050565b60008115159050919050565b611c6e81611c59565b82525050565b6000602082019050611c896000830184611c65565b92915050565b6000819050919050565b611ca281611c8f565b8114611cad57600080fd5b50565b600081359050611cbf81611c99565b92915050565b600060208284031215611cdb57611cda611bca565b5b6000611ce984828501611cb0565b91505092915050565b600073ffffffffffffffffffffffffffffffffffffffff82169050919050565b6000611d1d82611cf2565b9050919050565b611d2d81611d12565b82525050565b6000602082019050611d486000830184611d24565b92915050565b6000819050919050565b611d6181611d4e565b8114611d6c57600080fd5b50565b600081359050611d7e81611d58565b92915050565b600060208284031215611d9a57611d99611bca565b5b6000611da884828501611d6f565b91505092915050565b611dba81611d4e565b82525050565b6000602082019050611dd56000830184611db1565b92915050565b6000611de682611cf2565b9050919050565b611df681611ddb565b8114611e0157600080fd5b50565b600081359050611e1381611ded565b92915050565b60008060408385031215611e3057611e2f611bca565b5b6000611e3e85828601611d6f565b9250506020611e4f85828601611e04565b9150509250929050565b611e6281611c8f565b82525050565b6000602082019050611e7d6000830184611e59565b92915050565b600080fd5b600080fd5b6000601f19601f8301169050919050565b7f4e487b7100000000000000000000000000000000000000000000000000000000600052604160045260246000fd5b611ed682611e8d565b810181811067ffffffffffffffff82111715611ef557611ef4611e9e565b5b80604052505050565b6000611f08611bc0565b9050611f148282611ecd565b919050565b600067ffffffffffffffff821115611f3457611f33611e9e565b5b611f3d82611e8d565b9050602081019050919050565b82818337600083830152505050565b6000611f6c611f6784611f19565b611efe565b905082815260208101848484011115611f8857611f87611e88565b5b611f93848285611f4a565b509392505050565b600082601f830112611fb057611faf611e83565b5b8135611fc0848260208601611f59565b91505092915050565b60008060408385031215611fe057611fdf611bca565b5b6000611fee85828601611e04565b925050602083013567ffffffffffffffff81111561200f5761200e611bcf565b5b61201b85828601611f9b565b9150509250929050565b600081519050919050565b600082825260208201905092915050565b6000819050602082019050919050565b61205a81611d12565b82525050565b600061206c8383612051565b60208301905092915050565b6000602082019050919050565b600061209082612025565b61209a8185612030565b93506120a583612041565b8060005b838110156120d65781516120bd8882612060565b97506120c883612078565b9250506001810190506120a9565b5085935050505092915050565b600060208201905081810360008301526120fd8184612085565b905092915050565b60006020828403121561211b5761211a611bca565b5b600061212984828501611e04565b91505092915050565b600081519050919050565b600082825260208201905092915050565b60005b8381101561216c578082015181840152602081019050612151565b60008484015250505050565b600061218382612132565b61218d818561213d565b935061219d81856020860161214e565b6121a681611e8d565b840191505092915050565b600060208201905081810360008301526121cb8184612178565b905092915050565b6000819050919050565b600067ffffffffffffffff82169050919050565b6000819050919050565b600061221661221161220c846121d3565b6121f1565b6121dd565b9050919050565b612226816121fb565b82525050565b6000602082019050612241600083018461221d565b92915050565b7f4e487b7100000000000000000000000000000000000000000000000000000000600052601160045260246000fd5b600061228182611c8f565b915061228c83611c8f565b92508282019050808211156122a4576122a3612247565b5b92915050565b7f526f756e6420636c6f7365640000000000000000000000000000000000000000600082015250565b60006122e0600c8361213d565b91506122eb826122aa565b602082019050919050565b6000602082019050818103600083015261230f816122d3565b9050919050565b7f416c7265616479206a6f696e6564000000000000000000000000000000000000600082015250565b600061234c600e8361213d565b915061235782612316565b602082019050919050565b6000602082019050818103600083015261237b8161233f565b9050919050565b7f4d696e20302e3031204554480000000000000000000000000000000000000000600082015250565b60006123b8600c8361213d565b91506123c382612382565b602082019050919050565b600060208201905081810360008301526123e7816123ab565b9050919050565b7f526f756e64206e6f742066696e69736865640000000000000000000000000000600082015250565b600061242460128361213d565b915061242f826123ee565b602082019050919050565b6000602082019050818103600083015261245381612417565b9050919050565b7f4e6f207061727469636970616e74730000000000000000000000000000000000600082015250565b6000612490600f8361213d565b915061249b8261245a565b602082019050919050565b600060208201905081810360008301526124bf81612483565b9050919050565b6000819050919050565b6124e16124dc82611c8f565b6124c6565b82525050565b60006124f382856124d0565b60208201915061250382846124d0565b6020820191508190509392505050565b7f4e487b7100000000000000000000000000000000000000000000000000000000600052601260045260246000fd5b600061254d82611c8f565b915061255883611c8f565b92508261256857612567612513565b5b828206905092915050565b7f4e487b7100000000000000000000000000000000000000000000000000000000600052603260045260246000fd5b600081905092915050565b50565b60006125bd6000836125a2565b91506125c8826125ad565b600082019050919050565b60006125de826125b0565b9150819050919050565b7f5472616e73666572206661696c65640000000000000000000000000000000000600082015250565b600061261e600f8361213d565b9150612629826125e8565b602082019050919050565b6000602082019050818103600083015261264d81612611565b9050919050565b60006040820190506126696000830185611e59565b6126766020830184611e59565b9392505050565b600061268882611c8f565b91507fffffffffffffffffffffffffffffffffffffffffffffffffffffffffffffffff82036126ba576126b9612247565b5b600182019050919050565b6000815190506126d481611d58565b92915050565b6000602082840312156126f0576126ef611bca565b5b60006126fe848285016126c5565b91505092915050565b61271081611ddb565b82525050565b600060208201905061272b6000830184612707565b92915050565b60006040820190506127466000830185612707565b6127536020830184611db1565b9392505050565b600081519050919050565b60006127708261275a565b61277a81856125a2565b935061278a81856020860161214e565b80840191505092915050565b60006127a28284612765565b91508190509291505056fea26469706673582212206f76ec8db7c73839c1854a30492272e3aeea4b55947e6e41bc6414fcdd41ef0164736f6c63430008160033",
  "linkReferences": {},
  "deployedLinkReferences": {}
}